{
  "_format": "hh-sol-artifact-1",
  "contractName": "Market",
  "sourceName": "contracts/Market.sol",
  "abi": [
    {
      "inputs": [
        {
          "internalType": "address",
          "name": "tokenAddress",
          "type": "address"
        }
      ],
      "stateMutability": "nonpayable",
      "type": "constructor"
    },
    {
      "inputs": [
        {
          "internalType": "uint256",
          "name": "tokenId",
          "type": "uint256"
        }
      ],
      "name": "buy",
      "outputs": [],
      "stateMutability": "payable",
      "type": "function"
    },
    {
      "inputs": [],
      "name": "contractOwner",
      "outputs": [
        {
          "internalType": "address",
          "name": "",
          "type": "address"
        }
      ],
      "stateMutability": "view",
      "type": "function"
    },
    {
      "inputs": [],
      "name": "myTokenAddress",
      "outputs": [
        {
          "internalType": "address",
          "name": "",
          "type": "address"
        }
      ],
      "stateMutability": "view",
      "type": "function"
    },
    {
      "inputs": [
        {
          "internalType": "uint256",
          "name": "",
          "type": "uint256"
        }
      ],
      "name": "nftPrice",
      "outputs": [
        {
          "internalType": "uint256",
          "name": "",
          "type": "uint256"
        }
      ],
      "stateMutability": "view",
      "type": "function"
    },
    {
      "inputs": [
        {
          "internalType": "uint256",
          "name": "tokenId",
          "type": "uint256"
        },
        {
          "internalType": "uint256",
          "name": "price",
          "type": "uint256"
        }
      ],
      "name": "sell",
      "outputs": [],
      "stateMutability": "nonpayable",
      "type": "function"
    },
    {
      "inputs": [],
      "name": "withdraw",
      "outputs": [],
      "stateMutability": "nonpayable",
      "type": "function"
    }
  ],
  "bytecode": "0x608060405234801561001057600080fd5b50604051610ea2380380610ea28339818101604052810190610032919061011d565b80600260006101000a81548173ffffffffffffffffffffffffffffffffffffffff021916908373ffffffffffffffffffffffffffffffffffffffff16021790555033600160006101000a81548173ffffffffffffffffffffffffffffffffffffffff021916908373ffffffffffffffffffffffffffffffffffffffff1602179055505061014a565b600080fd5b600073ffffffffffffffffffffffffffffffffffffffff82169050919050565b60006100ea826100bf565b9050919050565b6100fa816100df565b811461010557600080fd5b50565b600081519050610117816100f1565b92915050565b600060208284031215610133576101326100ba565b5b600061014184828501610108565b91505092915050565b610d49806101596000396000f3fe6080604052600436106100555760003560e01c80633ccfd60b1461005a5780636de2991414610071578063ce606ee0146100ae578063d79875eb146100d9578063d96a094a14610102578063e6f822ab1461011e575b600080fd5b34801561006657600080fd5b5061006f610149565b005b34801561007d57600080fd5b50610098600480360381019061009391906107b4565b610288565b6040516100a591906107f0565b60405180910390f35b3480156100ba57600080fd5b506100c36102a0565b6040516100d0919061084c565b60405180910390f35b3480156100e557600080fd5b5061010060048036038101906100fb9190610867565b6102c6565b005b61011c600480360381019061011791906107b4565b6104f9565b005b34801561012a57600080fd5b50610133610753565b604051610140919061084c565b60405180910390f35b600160009054906101000a900473ffffffffffffffffffffffffffffffffffffffff1673ffffffffffffffffffffffffffffffffffffffff163373ffffffffffffffffffffffffffffffffffffffff16146101d9576040517f08c379a00000000000000000000000000000000000000000000000000000000081526004016101d09061092a565b60405180910390fd5b60003373ffffffffffffffffffffffffffffffffffffffff16476040516101ff9061097b565b60006040518083038185875af1925050503d806000811461023c576040519150601f19603f3d011682016040523d82523d6000602084013e610241565b606091505b5050905080610285576040517f08c379a000000000000000000000000000000000000000000000000000000000815260040161027c906109dc565b60405180910390fd5b50565b60006020528060005260406000206000915090505481565b600160009054906101000a900473ffffffffffffffffffffffffffffffffffffffff1681565b6000600260009054906101000a900473ffffffffffffffffffffffffffffffffffffffff1673ffffffffffffffffffffffffffffffffffffffff16636352211e846040518263ffffffff1660e01b815260040161032391906107f0565b602060405180830381865afa158015610340573d6000803e3d6000fd5b505050506040513d601f19601f820116820180604052508101906103649190610a28565b90503373ffffffffffffffffffffffffffffffffffffffff168173ffffffffffffffffffffffffffffffffffffffff16146103d4576040517f08c379a00000000000000000000000000000000000000000000000000000000081526004016103cb90610ac7565b60405180910390fd5b3073ffffffffffffffffffffffffffffffffffffffff16600260009054906101000a900473ffffffffffffffffffffffffffffffffffffffff1673ffffffffffffffffffffffffffffffffffffffff1663081812fc856040518263ffffffff1660e01b815260040161044691906107f0565b602060405180830381865afa158015610463573d6000803e3d6000fd5b505050506040513d601f19601f820116820180604052508101906104879190610a28565b73ffffffffffffffffffffffffffffffffffffffff16146104dd576040517f08c379a00000000000000000000000000000000000000000000000000000000081526004016104d490610b59565b60405180910390fd5b8160008085815260200190815260200160002081905550505050565b60008082815260200190815260200160002054341461054d576040517f08c379a000000000000000000000000000000000000000000000000000000000815260040161054490610beb565b60405180910390fd5b6000600260009054906101000a900473ffffffffffffffffffffffffffffffffffffffff1673ffffffffffffffffffffffffffffffffffffffff16636352211e836040518263ffffffff1660e01b81526004016105aa91906107f0565b602060405180830381865afa1580156105c7573d6000803e3d6000fd5b505050506040513d601f19601f820116820180604052508101906105eb9190610a28565b9050600260009054906101000a900473ffffffffffffffffffffffffffffffffffffffff1673ffffffffffffffffffffffffffffffffffffffff166323b872dd3033856040518463ffffffff1660e01b815260040161064c93929190610c0b565b600060405180830381600087803b15801561066657600080fd5b505af115801561067a573d6000803e3d6000fd5b505050506000600a60093461068f9190610c71565b6106999190610ce2565b9050600082905060008173ffffffffffffffffffffffffffffffffffffffff16836040516106c69061097b565b60006040518083038185875af1925050503d8060008114610703576040519150601f19603f3d011682016040523d82523d6000602084013e610708565b606091505b505090508061074c576040517f08c379a0000000000000000000000000000000000000000000000000000000008152600401610743906109dc565b60405180910390fd5b5050505050565b600260009054906101000a900473ffffffffffffffffffffffffffffffffffffffff1681565b600080fd5b6000819050919050565b6107918161077e565b811461079c57600080fd5b50565b6000813590506107ae81610788565b92915050565b6000602082840312156107ca576107c9610779565b5b60006107d88482850161079f565b91505092915050565b6107ea8161077e565b82525050565b600060208201905061080560008301846107e1565b92915050565b600073ffffffffffffffffffffffffffffffffffffffff82169050919050565b60006108368261080b565b9050919050565b6108468161082b565b82525050565b6000602082019050610861600083018461083d565b92915050565b6000806040838503121561087e5761087d610779565b5b600061088c8582860161079f565b925050602061089d8582860161079f565b9150509250929050565b600082825260208201905092915050565b7f4f6e6c792074686520636f6e7472616374206f776e65722063616e2063616c6c60008201527f20746869732066756e6374696f6e000000000000000000000000000000000000602082015250565b6000610914602e836108a7565b915061091f826108b8565b604082019050919050565b6000602082019050818103600083015261094381610907565b9050919050565b600081905092915050565b50565b600061096560008361094a565b915061097082610955565b600082019050919050565b600061098682610958565b9150819050919050565b7f4661696c656420746f2073656e64204574686572000000000000000000000000600082015250565b60006109c66014836108a7565b91506109d182610990565b602082019050919050565b600060208201905081810360008301526109f5816109b9565b9050919050565b610a058161082b565b8114610a1057600080fd5b50565b600081519050610a22816109fc565b92915050565b600060208284031215610a3e57610a3d610779565b5b6000610a4c84828501610a13565b91505092915050565b7f596f75206d757374206f776e207468697320746f6b656e20746f2073656c6c2060008201527f6974000000000000000000000000000000000000000000000000000000000000602082015250565b6000610ab16022836108a7565b9150610abc82610a55565b604082019050919050565b60006020820190508181036000830152610ae081610aa4565b9050919050565b7f596f75206d75737420617070726f76652074686973206d61726b6574706c616360008201527f6520746f207472616e73666572207468697320746f6b656e0000000000000000602082015250565b6000610b436038836108a7565b9150610b4e82610ae7565b604082019050919050565b60006020820190508181036000830152610b7281610b36565b9050919050565b7f596f75206d7573742070617920636f727265637420707269636520746f20627560008201527f79206120746f6b656e0000000000000000000000000000000000000000000000602082015250565b6000610bd56029836108a7565b9150610be082610b79565b604082019050919050565b60006020820190508181036000830152610c0481610bc8565b9050919050565b6000606082019050610c20600083018661083d565b610c2d602083018561083d565b610c3a60408301846107e1565b949350505050565b7f4e487b7100000000000000000000000000000000000000000000000000000000600052601160045260246000fd5b6000610c7c8261077e565b9150610c878361077e565b9250828202610c958161077e565b91508282048414831517610cac57610cab610c42565b5b5092915050565b7f4e487b7100000000000000000000000000000000000000000000000000000000600052601260045260246000fd5b6000610ced8261077e565b9150610cf88361077e565b925082610d0857610d07610cb3565b5b82820490509291505056fea26469706673582212208ba70f426f734de380f121f8e55ce57021a56cabd7287e7f1befbb2d85979e1164736f6c63430008140033",
  "linkReferences": {},
  "deployedLinkReferences": {}
}